:020000040800F2
:1000000090040020A1010008150E0008CF0C000884
:10001000110E00088B0B0008451C000800000000B2
:100020000000000000000000000000002511000892
:10003000C90B000800000000990F00083D120008DD
:10004000BB010008BB010008BB010008BB010008A0
:10005000BB010008BB010008BB010008BB01000890
:10006000BB010008BB010008BB010008BB01000880
:10007000BB010008BB010008BB010008BB01000870
:10008000BB010008BB010008BB010008BB01000860
:10009000BB010008BB010008BB010008BB01000850
:1000A000BB010008BB010008BB010008BB01000840
:1000B000BB010008BB010008BB010008BB01000830
:1000C000BB010008BB010008BB010008BB01000820
:1000D000BB010008C1160008BB0100086117000839
:1000E000BB010008BB010008BB010008BB01000800
:1000F000BB010008BB010008BB010008BB010008F0
:10010000BB010008BB010008BB010008BB010008DF
:10011000BB010008BB010008BB010008BB010008CF
:10012000BB010008BB010008BB010008BB010008BF
:10013000BB010008BB010008BB010008BB010008AF
:10014000BB010008BB010008BB010008BB0100089F
:10015000BB010008BB010008BB010008BB0100088F
:10016000BB010008BB010008BB010008BB0100087F
:10017000BB010008BB010008BB010008BB0100086F
:10018000BB010008BB010008DFF810D000F01CFA2A
:1001900000480047FD1C0008AFF3008090040020D9
:1001A0000648804706480047FEE7FEE7FEE7FEE711
:1001B000FEE7FEE7FEE7FEE7FEE7FEE74112000886
:1001C000890100082DE9F05F0546002092469B4614
:1001D00088460646814640241BE02846414647465D
:1001E000224600F04CF953465A46C01A914110D3AA
:1001F00011461846224600F033F92D1A67EB010824
:100200004F4622460120002100F02AF917EB000991
:100210004E41201EA4F10104DFDC484631462A4647
:100220004346BDE8F09F2DE9FE4F81EA030404F048
:10023000004421F0004100944FF0000B23F00043F4
:1002400050EA01045ED052EA03045BD0C3F30A54BF
:10025000C1F30A552C44A4F2F3340194A0FB0254D8
:10026000C1F3130141F48011C3F3130343F480136A
:1002700001FB024400FB034E840A970A44EA8154BE
:1002800047EA8357A4FB076802958D0A05FB07859B
:100290004FEA932C04FB0C542705029D4FEA0658A5
:1002A00047EA1637B5EB08056EEB070C870E920E82
:1002B00047EA811742EA8312A7FB0201B6EB0B0162
:1002C00064EB00042B0D43EA0C335E1844EB1C5026
:1002D000DA465146E7FB0201C5F313044FEA0B333C
:1002E00043EA14534FEA0432019C43EA0603A4F1A3
:1002F0000C040294009CCDE900B400F016F903B0A0
:10030000BDE8F08F00200146F9E72DE9F04D81EAC4
:10031000030404F0004B21F0004514464FF0000A9E
:1003200023F0004150EA050220D054EA01021DD01A
:10033000C5F30A570246C5F31303C1F31300C1F313
:100340000A5640F4801543F48013A7EB0608101BEF
:10035000D64608F2FD3873EB050002D308F1010818
:1003600001E092185B41B8F1000F03DA002001466A
:10037000BDE8F08D00204FF48011064684460EE063
:10038000171B73EB050705D3121B63EB050306432D
:100390004CEA010C49084FEA300092185B4150EAE0
:1003A0000107EDD152EA030012D082EA040083EA89
:1003B0000501084305D0101BAB4106D201220023E2
:1003C00006E000224FF0004302E06FF001025310FC
:1003D0001AEB06004CEB085110EB0A0041EB0B0145
:1003E000BDE8F04D00F092B80EB540F233410291F5
:1003F0000021CDE900110A460B4600F096F803B043
:1004000000BD00F0004230F000400AD0C10D01F5FF
:100410006071C0F3160042EA0151C208400711435F
:10042000704700200146704701F0004330B421F0CE
:10043000004150EA010206D00A0DA2F56072C1F334
:100440001301002A02DC30BC00207047440F44EA4C
:10045000C104C100E01830BC00EBC25000F01FB86E
:10046000202A04DB203A00FA02F100207047914074
:10047000C2F1200320FA03F3194390407047202A69
:1004800004DB203A21FA02F00021704721FA02F33E
:10049000D040C2F12002914008431946704700291C
:1004A000A8BF7047401C490008BF20F001007047FA
:1004B00010B4B0FA80FC00FA0CF050EA010404BF5A
:1004C00010BC704749B1CCF1200421FA04F411FAB0
:1004D0000CF118BF012121430843A3EB0C01CB1DF4
:1004E0004FEA00614FEA102042BF002010BC704765
:1004F00000EBC35010440029A4BF10BC7047401C3F
:10050000490008BF20F0010010BC704710B5141E50
:1005100073F1000408DA401C41F1000192185B41BC
:100520001A4301D120F0010010BD2DE9F04D924693
:100530009B4611B1B1FA81F202E0B0FA80F22032AA
:100540009046FFF78DFF04460F4640EA0A0041EA55
:100550000B0153465A46084313D0114653EA010093
:1005600019D0C8F140025046FFF789FF05460E46F4
:10057000504659464246FFF773FF084305D0012015
:1005800004E020463946BDE8F08D0020054346EAE8
:10059000E0762C4337430A986305E40AA0EB080091
:1005A0000022FD0A44EA47540A3002D500200146E1
:1005B000E9E7010510196941DDE9084500196941BC
:1005C000BDE8F04DA2E70000064C074D06E0E068EC
:1005D00040F0010394E8070098471034AC42F6D38A
:1005E000FFF7D6FD282200084822000810B500F0C9
:1005F0004FFC54234FF47A720121364800F0BCFFBF
:1006000054234FF47A720221324800F0B5FF54238C
:100610004FF47A7203212F4800F0AEFF54234FF4B9
:100620007A7204212B4800F0A7FF54234FF47A720A
:100630000121880700F0A0FF54234FF47A720221B1
:10064000480700F099FF54234FF47A720321D00633
:1006500000F092FF54234FF47A720421080700F04F
:100660008BFF54234FF47A7201211B4800F084FF62
:1006700054234FF47A720221174800F07DFF54236F
:100680004FF47A720321144800F076FF54234FF49C
:100690007A720421104800F06FFF54234FF47A72ED
:1006A00001210E4800F068FF54234FF47A720221B2
:1006B0000A4800F061FF54234FF47A72032107487F
:1006C00000F05AFF54234FF47A720421034800F0DB
:1006D00053FF10BD0000014000040040000800402E
:1006E00010B5052001F0E0FA10BD10B50446204613
:1006F00001F0D0FA10BD00002DE9F0412DED068B80
:1007000082B007464FF0000800250024002600F0C4
:10071000C7F9942000F096F92844C5B2002000F0F3
:1007200091F92844C5B200F0BBF9952000F08AF990
:100730002844C5B20A20FFF7D8FF00BF0EE000F042
:10074000F5F80DF80600042E03D1012000F054F94D
:1007500002E0002000F050F9701CC6B2052EEEDB5E
:1007600000F0BAF90421684600F011FA80469DF8BD
:100770000400404528D19DF8034024029DF8020062
:10078000044324029DF80100044324029DF8000064
:10079000044300EE104AB8EE400A10EE100AFFF7CC
:1007A00030FE41EC1A0B9FED0C0B53EC102BFFF7B6
:1007B0003AFD41EC190BFFF737FE08EE100ABCEECC
:1007C000C80A87ED000A00E0F025284602B0BDEC1B
:1007D000068BBDE8F0810000666666666666F63FD9
:1007E0001CB500240121022000F0D8FB01210420C7
:1007F00000F0D4FB4FF48060009001208DF80400DD
:1008000002208DF8050000208DF806008DF8070005
:100810006946234800F0D9F94FF4006000900120A8
:100820008DF8040002208DF8050000208DF80600E8
:100830008DF8070069461A4800F0C7F94FF40050D8
:10084000009001208DF8040002208DF805000020A2
:100850008DF806008DF807006946124800F0B5F9DA
:100860004FF400510F4800F027FA4FF480610C4814
:1008700000F022FA4FF40061094800F01DFA6420EC
:10088000FFF733FF0621052000F044F92044C4B2ED
:100890006420FFF72AFF00F097F820461CBD0000F7
:1008A00000040240000802401CB500244FF400611F
:1008B0001D4800F001FA4FF40060009000208DF810
:1008C000040002208DF8050000208DF8070069461D
:1008D000154800F07AF94FF48061134800F0ECF904
:1008E000FFF7FEFE4FF400610F4800F0D9F900B1A8
:1008F0000124FFF7F5FE4FF480610B4800F0D9F9B1
:100900004FF40060009001208DF8040002208DF863
:10091000050000208DF806008DF8070069460248A2
:1009200000F053F920461CBD000402407CB50024B1
:100930004FF40060009000208DF8040002208DF834
:10094000050000208DF8070069461E4800F03DF9BB
:100950004FF400611B4800F0AFF900251BE04FF495
:100960008061184800F0A8F9FFF7BAFE4FF4006163
:10097000144800F095F908B144F001044FF4806187
:10098000104800F096F9FFF7ABFE072D01DA60067C
:10099000040E681CC5B2082DE1DB4FF40060009026
:1009A00001208DF8040002208DF8050000208DF84C
:1009B00006008DF807006946024800F006F9204657
:1009C0007CBD00000004024010B5002400F068F86F
:1009D000002000F037F82044C4B2C02000F032F804
:1009E0002044C4B2002000F02DF82044C4B200F02E
:1009F00073F8204610BD000010B5044604F0010055
:100A000028B14FF400610E4800F056F904E04FF4AD
:100A100000610B4800F04DF94FF48061084800F088
:100A20004BF9FFF75DFE4FF48061054800F041F996
:100A30004FF40061024800F03FF9FFF751FE10BD8E
:100A40000004024070B50446002521E004F0800057
:100A500028B14FF40061114800F02EF904E04FF482
:100A600000610E4800F025F9FFF73AFE4FF480616F
:100A70000A4800F021F9FFF733FE4FF48061074880
:100A800000F017F9FFF72CFE6006040E681CC5B2D3
:100A9000082DDBDBFFF708FF70BD000000040240FB
:100AA00010B54FF400610B4800F006F94FF4806177
:100AB000084800F001F9FFF713FE4FF40061054804
:100AC00000F0F7F8FFF70CFE4FF48061014800F0EA
:100AD000F0F810BD0004024010B54FF400610C485E
:100AE00000F0E7F84FF48061094800F0E5F8FFF7FF
:100AF000F7FD4FF40061064800F0DEF8FFF7F0FD67
:100B00004FF48061024800F0D4F8FFF7E9FD10BD12
:100B10000004024070B506460D460024FFF7C0FFF2
:100B20009420FFF78FFF2044C4B23046FFF78AFFBE
:100B30002044C4B22846FFF785FF2044C4B2FFF723
:100B4000CBFF204670BD30B50246002319E00020DF
:100B500012E052F82050441C52F82440A5420AD911
:100B600052F82040451C52F8255042F82050451CB0
:100B700042F8254000BF401C4C1EE41A8442E8DCC9
:100B80005B1C4C1E9C42E2DC30BD00BFFEE730B572
:100B900002460B46FF20002113E0555C6840082404
:100BA0000BE000F0800525B1312585EA4005E8B26B
:100BB00001E04506280E651EECB2002CF1DC4D1C50
:100BC000E9B29942E9DB30BD7047F0B50A46002131
:100BD0000023002400BF3DE0012505FA01F315685C
:100BE00005EA03049C4234D105684F000326BE4049
:100BF000B543056015794E00B5400668354305607C
:100C00001579012D02D01579022D16D185684F0076
:100C10000326BE40B543856055794E00B5408668D1
:100C200035438560456801268E40B543456045687B
:100C300096798E40B6B235434560C5684F000326AD
:100C4000BE40B543C560D5794E00B540C668354352
:100C5000C560491C1029BFD3F0BDF0B500230024A6
:100C60004D07ED0E02FA05F3CE1000F1200555F800
:100C700026504E07F70E0F26BE40B543CF1000F1A9
:100C8000200646F82750CE1000F1200555F82650D2
:100C900045EA0304CE1000F1200545F82640F0BDDA
:100CA0000246002013690B400BB1012000E0002038
:100CB00070470A0482617047816170474FF6FF7187
:100CC00001600021017141718171C171704700BFE4
:100CD000FEE70000F0B52DED068B8BB000240AE096
:100CE0006846FFF709FD30B92046611CCCB201A966
:100CF000009A41F820200A2CF2DB0A2101A8FFF714
:100D000022FF00252E46012407E001A850F8240008
:100D1000451946F10006601CC4B2092CF5DB082217
:100D2000002328463146FFF74DFA0746FFF75CFBE4
:100D30009FED090B53EC102BFFF7E7FA9FED080B23
:100D400053EC102BFFF7E1FAFFF76EFB00EE100AF1
:100D50000BB0BDEC068BF0BD9A9999999999D93F42
:100D60000000000000408F4070B52DED028BFFF7B2
:100D7000B1FFB0EE408A00249FED220AB4EEC08A93
:100D8000F1EE10FA11D200200CE0002107E04FF440
:100D90002F721D4B03EBC00323F81120491C0429BB
:100DA000F5DB401C0428F0DB29E09FED180A28EE53
:100DB000000ABDEEC00A10EE104AB4F52F7F01DD27
:100DC0004FF42F74322C00DA3224002015E000EBAF
:100DD000C00101EB001104EBC102B2F52F7F01DD70
:100DE0004FF42F72002105E0074D05EBC00525F8F3
:100DF0001120491C0429F7DB401C0428E7DBBDEC6B
:100E0000028B70BD0000484344000020CDCCCC3D97
:100E100000BFFEE77047000070B5002100230F22DD
:100E2000C4781CB3174C246804F4E064C4F5E0648F
:100E3000C4F30721C1F10404E3B20A4144789C40A1
:100E4000E1B28478144021430C07210E0E4C057842
:100E50006155047804F01F050124AC4005786D113C
:100E6000AD0005F1E025C5F8004109E0047804F083
:100E70001F050124AC40054D0678761145F8264043
:100E800070BD00000CED00E000E400E080E100E057
:100E90001CB50121132000F081F80121084600F063
:100EA000ADF80121072000F089F802208DF8040038
:100EB00000208DF806008DF8070003208DF805004E
:100EC00040F2CF10009069463048FFF77EFE40F2B6
:100ED000C330009069462E48FFF777FE4FF4D040AC
:100EE000009069462B48FFF770FE01220021274839
:100EF000FFF7B3FE012211462448FFF7AEFE0122A0
:100F000002212248FFF7A9FE012203211F48FFF713
:100F1000A4FE022206211D48FFF79FFE02220721A0
:100F20001A48FFF79AFE012208211848FFF795FE9C
:100F3000022200211648FFF790FE022201211448E8
:100F4000FFF78BFE022206211148FFF786FE0222E0
:100F500007210F48FFF781FE022208210C48FFF706
:100F60007CFE022209210A48FFF777FE01220B21AD
:100F70000848FFF772FE01220D210648FFF76DFEBB
:100F800001220E210348FFF768FE1CBD000002404D
:100F900000040240001002407047000029B1064AD8
:100FA00012680243044B1A6004E0034A1268824349
:100FB000014B1A60704700003038024029B1064AE0
:100FC00012680243044B1A6004E0034A1268824329
:100FD000014B1A60704700004038024029B1064AB0
:100FE00012680243044B1A6004E0034A1268824309
:100FF000014B1A60704700002038024029B1064AB0
:1010000012680243044B1A6004E0034A12688243E8
:10101000014B1A60704700004438024029B1064A6B
:1010200012680243044B1A6004E0034A12688243C8
:10103000014B1A607047000024380240F0B50021CF
:1010400000220024022500260223324F3F6807F0C9
:101050000C0121B1042905D0082937D105E02E4F14
:10106000076036E02D4F076033E02A4F3F1F3F688F
:10107000C7F38056274F3F1F3F6807F03F036EB10D
:10108000264FB7FBF3F7DFF88CC0ACF1040CDCF8AB
:1010900000C0CCF3881C07FB0CF40CE01E4FB7FB20
:1010A000F3F7DFF870C0ACF1040CDCF800C0CCF34F
:1010B000881C07FB0CF4174F3F1F3F68C7F301471D
:1010C0007F1C7D00B4FBF5F7076002E0124F07605C
:1010D00000BF00BF0F4F3F6807F0F0010909104F34
:1010E0007A5C0768D74047600A4F3F6807F4E051D1
:1010F000890A0B4F7A5C4768D7408760054F3F6885
:1011000007F46041490B064F7A5C4768D740C760D7
:10111000F0BD0000083802400024F40000127A00FC
:101120006C000020704700000CB50020019000907A
:101130003448006840F480303249086000BF3148CC
:10114000006800F4003000900198401C0190009865
:1011500018B90198B0F5A04FF1D12A48006800F401
:10116000003010B10120009001E0002000900098B4
:10117000012846D123484030006840F08050214982
:10118000403108602048006840F440401E49086033
:101190001C48083000681B49083108600846006890
:1011A00040F4004008600846006840F4A050086021
:1011B0001648091F0860081F006840F08070091F6A
:1011C000086000BF0F48006800F000700028F9D0E8
:1011D00040F205700E4908600A480830006820F0A7
:1011E00003000849083108600846006840F0020022
:1011F000086000BF03480830006800F00C000828B1
:10120000F8D10CBD0038024000700040085440077F
:10121000003C0240042808D14FF0E021096941F068
:1012200004014FF0E022116107E04FF0E02109696D
:1012300021F004014FF0E022116170477047000077
:1012400010B51548006840F4700013490860134851
:10125000006840F001001149086000200F49083182
:1012600008600E4800680E4908400C4908600D48A7
:10127000091D0860081F006820F48020091F08600D
:10128000002006490C310860FFF74EFF4FF0006068
:1012900001498039086010BD88ED00E00038024047
:1012A000FFFFF6FE1030002421B1028842F0010257
:1012B000028004E002884FF6FE731A4002807047F5
:1012C00031B1B0F8442042F40042A0F8442005E0D7
:1012D000B0F84420C2F30E02A0F84420704700008A
:1012E00070B5002400220023058C4FF6FE763540B1
:1012F0000584028C8388048B4FF68F752C40B51EB5
:101300002C400D882C43751E2A408D892A434D8818
:101310002A43104DA84202D00F4DA84213D14FF6D8
:10132000F7752A40CD892A434FF6FB752A408D88F0
:101330002A434FF6FF652B404FF6FF552B400D8A91
:101340002B434D8A2B43838004838D68456302843D
:1013500070BD000000000140000401400A46002169
:10136000018B4FF6F773194011430183704700005A
:1013700070B5002400220023058C4FF6EF7635402F
:101380000584028C8388048B48F6FF752C404FF649
:10139000FF452C400D884FF6FF7606EA05252C43C5
:1013A0004FF6DF752A408D8906EA05152A434D88D8
:1013B00006EA05152A43154DA84202D0144DA8424D
:1013C0001DD14FF67F752A40CD894FF6FF7606EA8C
:1013D00005152A434FF6BF752A408D8806EA051584
:1013E0002A434FF6FF352B404FF2FF752B400D8AF5
:1013F00006EA85052B434D8A06EA85052B43838043
:1014000004838D688563028470BD00000000014084
:10141000000401400A460021018B4FF2FF7319407E
:101420004FF6FF7303EA022319430183704700005C
:1014300070B5002400220023058C4FF6FF6635406E
:101440000584028C8388848B4FF68F752C404FF671
:10145000FC752C400D882C434FF6FF552A408D8992
:101460004FF6FF7606EA05252A434D8806EA05254C
:101470002A43154DA84202D0144DA8421DD14FF267
:10148000FF752A40CD894FF6FF7606EA05252A43E7
:101490004FF6FF352A408D8806EA05252A434EF689
:1014A000FF752B404DF6FF752B400D8A06EA05159A
:1014B0002B434D8A06EA05152B43838084838D6870
:1014C000C563028470BD00000000014000040140BB
:1014D0000A460021818B4FF6F7731940114381832F
:1014E0007047000070B5002200230024058C4EF6E2
:1014F000FF7635400584038C8488828B48F6FF751F
:101500002A404FF6FF452A400D884FF6FF7606EA3F
:1015100005252A434DF6FF752B408D8906EA0535D2
:101520002B434D8806EA05352B430A4DA84202D0CD
:10153000094DA84208D14BF6FF752C400D8A4FF695
:10154000FF7606EA85152C43848082838D680564C6
:10155000038470BD00000140000401400A460021E0
:10156000818B4FF2FF7319404FF6FF7303EA02239A
:101570001943818370470000F0B589B004460D46D9
:1015800016461F460796781E80B2ADF81800002058
:10159000ADF82000ADF81A0006A9204600F04EF87C
:1015A0006020ADF804000120ADF806000020ADF881
:1015B0001000012D06D0022D0DD0032D14D0042DC6
:1015C00024D11AE001A92046FFF78AFE082120460F
:1015D000FFF7C4FE1AE001A92046FFF7C9FE082163
:1015E0002046FFF717FF11E001A92046FFF720FF73
:1015F00008212046FFF76CFF08E001A92046FFF70D
:1016000071FF08212046FFF7A9FF00BF00BF01219D
:101610002046FFF749FE0448844202D10121FFF72A
:101620004FFE09B0F0BD000000000140416370476B
:1016300081637047C163704701647047002202886C
:10164000184B98420ED0184B98420BD0B0F1804FF7
:1016500008D0164B984205D0154B984202D0154B36
:10166000984204D14FF68F731A404B881A43124B9D
:10167000984207D0114B984204D04FF6FF431A40CE
:101680000B891A4302804B68C3620B880385054BA4
:10169000984202D0044B984201D18B7A03860123F1
:1016A00083827047000001400004014000040040B4
:1016B00000080040000C00400010004000140040F2
:1016C00010B540F22551224800F043F900283ED0E1
:1016D0001F4800F0F7F9C4B21E48007805282BD245
:1016E000DFE800F0030B11171D00552C04D11A4838
:1016F000047001201749087022E017484470022046
:10170000144908701CE014488470032011490870C3
:1017100016E01148C47004200E49087010E0DD2C5A
:1017200006D10D48047100F0A3FB01200B4908709D
:1017300000200849087003E000200649087000BF37
:1017400000BF40F22551024800F063F800BF10BD11
:10175000001001402B000020250000202C0000205C
:1017600010B540F22551234800F0F3F800283FD08F
:10177000204800F0A7F9C4B21F48007805282CD2F1
:10178000DFE800F0030E0F101900552C07D11A489E
:1017900001780078401C184A10701848445420E022
:1017A00000BF00BF144801780078401C124A107036
:1017B0001248445415E0104801780078401C0E4A45
:1017C00010700E4844540079DD2802D10B4800F017
:1017D00065FC00200849087003E0002006490870F5
:1017E00000BF00BF40F22551024800F012F800BFD0
:1017F00010BD000000480040420000203D000020D5
:1018000001F40072B2F5007F00D100BFCA4302802C
:10181000704710B50022002340F66A14A14200D19F
:1018200000BF0A1201249440A3B2DC43048010BD1F
:1018300021B1828942F40052828104E082894DF60E
:10184000FF731A408281704710B5044632488442C3
:1018500008D101211020FFF7E1FB00211020FFF744
:10186000DDFB57E02D48844209D101214804FFF7F0
:10187000B5FB00214FF40030FFF7B0FB4AE02848E9
:10188000844209D101218804FFF7A8FB00214FF40D
:101890008020FFF7A3FB3DE02248844209D10121CB
:1018A000C804FFF79BFB00214FF40020FFF796FBD5
:1018B00030E01D48844209D101210805FFF78EFB65
:1018C00000214FF48010FFF789FB23E01748844282
:1018D00008D101212020FFF7A1FB00212020FFF7E4
:1018E0009DFB17E01248844209D101218807FFF7C8
:1018F00075FB00214FF08040FFF770FB0AE00D48B8
:10190000844207D101214005FFF768FB00216005F3
:10191000FFF764FB10BD00000010014000440040D0
:1019200000480040004C00400050004000140140BE
:1019300000780040007C004002460020B1F5007FA6
:1019400000D100BF13880B400BB1012000E0002044
:10195000704770B50246002400230025002040F6A1
:101960006A16B14200D100BFC1F3421501F01F0356
:10197000012606FA03F3012D02D19689334006E0D1
:10198000022D02D1168A334001E0968A33400C12B0
:10199000012606FA04F41688344013B10CB1012074
:1019A00000E0002070BDF0B50346002400260025AD
:1019B000002040F66A17B94200D100BF1846C1F3B3
:1019C000421401F01F06012707FA06F5012C01D188
:1019D0000C3004E0022C01D1103000E014301AB1B8
:1019E00007682F43076002E00768AF430760F0BD58
:1019F0002DE9FF4705460E460024A14600BFA0463C
:101A0000B08900B100BF2C8A24F44054F08804430C
:101A10002C82AC8941F20C608443B0883189084340
:101A2000718908430443AC81AC8A24F44074B089C2
:101A30000443AC826846FFF701FB2048854202D090
:101A40001F48854202D1DDF80C9001E0DDF80890D6
:101A5000A88900F4004040B109EBC90000EB09106F
:101A600031684900B0FBF1F707E009EBC90000EB72
:101A7000091031688900B0FBF1F76420B7FBF0F082
:101A800004012009642101FB1078A88900F40040BA
:101A900040B1322000EBC800B0FBF1F000F00700CD
:101AA000044308E0322000EB08106421B0FBF1F0A1
:101AB00000F00F0004432C81BDE8FF8700100140B7
:101AC0000014014001468888C0F308007047C1F344
:101AD0000802828070474FF4165101600021818016
:101AE000C18001810C21418100218181704700006A
:101AF00070B5002598E0002492E04D4800EB850089
:101B0000005D28B14B4800EBC50030F8140000E040
:101B10000020064635B1012D22D0022D42D0032DE2
:101B20007CD15DE034B1012C09D0022C0CD0032C07
:101B300014D10EE031464048FFF778FD0EE0314603
:101B40003D48FFF775FD09E031463B48FFF772FD60
:101B500004E031463848FFF76FFD00BF00BF5DE08D
:101B600034B1012C0AD0022C0ED0032C18D111E074
:101B700031464FF08040FFF759FD11E031464FF0FC
:101B80008040FFF755FD0BE031464FF08040FFF7F6
:101B900051FD05E031464FF08040FFF74DFD00BF9D
:101BA00000BF3BE034B1012C09D0022C0CD0032C37
:101BB00014D10EE031462148FFF738FD0EE03146E2
:101BC0001E48FFF735FD09E031461C48FFF732FD9E
:101BD00004E031461948FFF72FFD00BF00BF1DE0AC
:101BE00034B1012C09D0022C0CD0032C14D10EE0FE
:101BF00031461348FFF71AFD0EE031461048FFF753
:101C000017FD09E031460E48FFF714FD04E03146A8
:101C10000B48FFF711FD00BF00BF00BF00BF641CF1
:101C2000042CFFF66AAF6D1C042DFFF664AF70BD87
:101C30007C0000204400002000000140000400401F
:101C40000008004000BFFEE702E008C8121F08C1FC
:101C5000002AFAD170477047002001E001C1121F2D
:101C6000002AFBD17047000010B54FF00060084912
:101C700008600420FFF7CEFA4FF6FF704FF0E02126
:101C800048610846006940F00100086110BD00008D
:101C900008ED00E010B504464FF47A7104FB01F042
:101CA00000F002F810BD000070B503460022114D8F
:101CB0002D68114EB5FBF6F505FB03F44FF0E0255A
:101CC000A96913E04FF0E025A86988420ED0884248
:101CD00002D20D1A2A4405E04FF0E0256D692D1A55
:101CE0000D442A440146A24200D300E0EAE700BFC7
:101CF00070BD00000000002040420F00FFF7B4FF5D
:101D0000FEF774FC4FF4E13000F046F84FF4E13098
:101D100000F048F9FEF764FD30E0194800781949F1
:101D20000978884222D0164800781649087014486D
:101D30000078012805D105221349144800F050FA13
:101D400014E00F480078022805D1052210490F48F9
:101D500000F046FA0AE00A480078032806D1052276
:101D60000C490A4800F03CFAFEF7FEFF04480078F0
:101D7000032801D1FEF7F8FFFFF7BAFECDE7000018
:101D80003C0000201A0000202D000020001001401F
:101D9000320000203700002010B588B00446012131
:101DA0000846FFF7FBF8072209212F48FEF755FFE9
:101DB00007220A212C48FEF750FF06A8FEF77EFFF7
:101DC0004FF40070069002208DF81C0003208DF85F
:101DD0001D0000208DF81E0001208DF81F0006A9AF
:101DE0002148FEF7F2FE4FF48060069006A91E48D7
:101DF000FEF7EBFE01211020FFF700F91B48FFF76B
:101E000023FD02A8FFF767FE02940020ADF80C0046
:101E1000ADF80E00ADF810000C20ADF81200002057
:101E2000ADF8140002A91148FFF7E2FD20210F4888
:101E3000FFF7E6FC01210D48FFF7FAFC012240F212
:101E400025510A48FFF7AFFD25208DF8040000203A
:101E50008DF8050001208DF806008DF8070001A817
:101E6000FEF7DAFF08B010BD00000240001001408C
:101E70002DE9F04704462078552801D0BDE8F087C9
:101E800066782079DD2848D1012E45D1A578E778FC
:101E900000201CE0C0F1070345FA03F303F001033F
:101EA00001464FEAE07C00EB9C7C4FEAAC0CDFF88B
:101EB000E88008EB8C0C02464FEAE07800EB98785B
:101EC0004FEAA808A0EB88080CF80830401C082846
:101ED000E0DB002019E0C0F1070347FA03F303F049
:101EE000010C00F10802D31702EB93739B10DFF88B
:101EF000A88008EB83081146CB1701EB93739B1066
:101F0000A1EB830308F803C0401C0828E3DB05228B
:101F10002146224800F064F93BE06079DD2838D1A1
:101F2000A57894F8038094F8049049EA0827B7F557
:101F30007A7F01DD4FF47A77042E02D0052E20D16E
:101F400012E02846EB1705EB9373C3F38701EB17F9
:101F500005EB93739B10A5EB8303DAB2104800EBFB
:101F6000C10020F812700DE0042D09DA002005E010
:101F70000B4901EBC00121F81570401C0428F7DB68
:101F800000E000BF00BF06222146044800F028F907
:101F900000BF00BF72E700007C0000200048004046
:101FA0004400002010B588B0044601210420FEF74B
:101FB000F5FF07220A213548FEF74FFE07220B21C5
:101FC0003248FEF74AFE06A8FEF778FE4FF480601E
:101FD000069002208DF81C0003208DF81D000020C3
:101FE0008DF81E0001208DF81F0006A92748FEF776
:101FF000ECFD4FF40060069006A92448FEF7E5FDCD
:1020000001218804FEF7DAFF2148FFF71DFC02A832
:10201000FFF761FD02940020ADF80C00ADF80E0052
:10202000ADF810000C20ADF812000020ADF814003F
:1020300002A91748FFF7DCFC20211548FFF7E0FB59
:1020400001211348FFF7F4FB012240F2255110480B
:10205000FFF7A9FC27208DF8040000208DF805006B
:1020600001208DF806008DF8070001A8FEF7D4FEC8
:1020700000200849088000BF04E00021064A1154EE
:10208000411C88B20528F8DB08B010BD00080240EA
:1020900000480040220000201C0000202DE9F041F3
:1020A00005462878552802D12879DD2801D0BDE8D9
:1020B000F0816F78AC78EE78052229463F4800F031
:1020C0008FF8012F04D0022F42D0032F72D159E094
:1020D00000201CE0C0F1070344FA03F303F00103FE
:1020E00001464FEAE07C00EB9C7C4FEAAC0CDFF849
:1020F000D08008EB8C0C02464FEAE07800EB987831
:102100004FEAA808A0EB88080CF80830401C082803
:10211000E0DB002019E0C0F1070346FA03F303F007
:10212000010C00F10802D31702EB93739B10DFF848
:10213000908008EB83081146CB1701EB93739B103B
:10214000A1EB830308F803C0401C0828E3DB32E05E
:102150001C4804701C480470012C04D105221B4942
:102160001B4800F03DF8022C04D1052219491848FB
:1021700000F036F8032C04D105221749144800F06A
:102180002FF818E046EA0422B2F57A7F01DD4FF419
:102190007A7200200AE0002105E0104B03EBC00337
:1021A00023F81120491C0429F7DB401C0428F2DB2A
:1021B00001E0FFE700BF00BF00BF78E70048004034
:1021C0007C000020240000203C0000202D00002086
:1021D00000100140320000203700002044000020A1
:1021E0002DE9F04107460C46154604B10DB9BDE88E
:1021F000F081002605E0A15D384600F006F8701C6D
:1022000086B2AE42F7DB00BFF1E770B504460D467B
:1022100029462046FFF75BFC00BF80212046FFF7E0
:102220008BFB0028F9D070BD482200080000002078
:102230007C000000481C0008C42200087C0000202C
:1022400014040000581C0008007A030A0000000073
:1022500000000000010203040607080955050300F9
:1022600032DD00000000000000000000000000005F
:10227000000000000055020100DD55020200DD559E
:10228000020300DD0000000000000000BC02BC02F0
:10229000BC02BC02BC02BC02BC02BC02BC02BC024E
:1022A000BC02BC02BC02BC02BC02BC0200000000BA
:1022B0000A00000000000000010203040102030400
:0422C00006070809FC
:040000050800018965
:00000001FF
